:100000000C9447000C9471000C9471000C947100D6
:100010000C9471000C9471000C9471000C9471009C
:100020000C9471000C9471000C9471000C9471008C
:100030000C9471000C9471000C9471000C9471007C
:100040000C9467050C9471000C946A040C94A00441
:100050000C9471000C9471000C9471000C9471005C
:100060000C9471000C9471000C9471000C9471004C
:100070000C9471000C9471000C9471000C9471003C
:100080000C9471000C9471000C947100D404112430
:100090001FBECFEFD0E1DEBFCDBF11E0A0E0B1E0E9
:1000A000ECE1FCE000E00BBF02C007900D92AA3724
:1000B000B107D9F722E0AAE7B1E001C01D92A3354C
:1000C000B207E1F710E0C7E4D0E004C02197FE01D9
:1000D0000E940306C634D107C9F70E9458050C9444
:1000E0000C060C9400001F93CF93DF9320E030E0C8
:1000F00090E041E050E0A82FB0E0C091A901D0917C
:10010000AA016881FA0100909A0102C0EE0FFF1F58
:100110000A94E2F78E2F809586238883122FE09130
:10012000A701F091A80180919901BD01022E02C0A2
:10013000759567950A94E2F760FF09C0C081BA011E
:1001400001C0660F8A95EAF76C2B60830AC0608154
:10015000EA0101C0CC0F8A95EAF78C2F809586239F
:10016000808385E38A95F1F70000E091A901F09181
:10017000AA018081BA0100909A0102C0660F771F20
:100180000A94E2F7682B6083E091A301F091A40147
:10019000608170E00090970102C0759567950A94A0
:1001A000E2F760FF06C0BA0101C0660F1A95EAF7D0
:1001B000962B85E38A95F1F700002F5F3F4F28309B
:1001C000310509F09ACFE091A901F091AA0180814F
:1001D00021E030E000909A0102C0220F331F0A9400
:1001E000E2F7282B2083892FDF91CF911F9108956B
:1001F000EF92FF921F93CF93DF931F92CDB7DEB79D
:10020000A091A501B091A6015C9121E030E0F90137
:100210000090980102C0EE0FFF1F0A94E2F74E2FE4
:10022000409545234C93E091A701F091A80170817E
:10023000A9010090990102C0440F551F0A94E2F7EA
:10024000472B4083E091A901F091AA0140810090E1
:100250009A0102C0220F331F0A94E2F7242B208355
:10026000182F7C018E2D811B861750F4F701808199
:1002700069830E947300F70181937F016981F2CF46
:10028000E091A501F091A601208181E090E000902D
:10029000980102C0880F991F0A94E2F7822B80838D
:1002A0000F90DF91CF911F91FF90EF90089581E023
:1002B0008093820182E480938301E4E8F1E083E1AA
:1002C0008E0F11928E13FDCF65E182E891E00C94C0
:1002D000F8002F923F924F925F926F927F928F928F
:1002E0009F92AF92CF92DF92EF920F931F93CF9393
:1002F000DF93CDB7DEB767970FB6F894DEBF0FBEBA
:10030000CDBF9093AC018093AB015093AA01409371
:10031000A9011093A8010093A701D092A601C09251
:10032000A5014C0131E0831A91089092A2018092BC
:10033000A1012A01A1E04A1A51085092A00140925D
:100340009F013801B1E06B1A710870929E016092B2
:100350009D011601E1E02E1A310830929C01209295
:100360009B01FC013297F093A401E093A301209339
:100370009A01E0929901A092980160939701D201AD
:100380003C91E1E0F0E06F0101C0CC0C2A95EAF766
:10039000232F2C292C93D1017C919F0101C0220F86
:1003A000AA94EAF7272B2C93D3017C919F0101C0DB
:1003B000220FEA94EAF7372F322B3C93D4017C9139
:1003C00001C0EE0F6A95EAF73E2F309537233C9334
:1003D000DC013C91E32BEC93FA018081C82AC082B6
:1003E000D8018C91282B2C930E94570185E0E0E0E6
:1003F000F1E0DE01539601900D928A95E1F765E0F8
:10040000CE0143960E94F80089E0E5E0F1E0DE01CC
:100410001A9601900D928A95E1F769E0CE010A964D
:100420000E94F80089E0EEE0F1E0DE011196019013
:100430000D928A95E1F769E0CE0101960E94F800DD
:1004400067960FB6F894DEBF0FBECDBFDF91CF9198
:100450001F910F91EF90DF90CF90AF909F908F9072
:100460007F906F905F904F903F902F9008952091D4
:10047000850130918601209530952823392381E02C
:10048000232B09F480E00895AF92CF92DF92EF9290
:100490000F931F9382E0A82E95E6C92ED12CEE244F
:1004A000E39405E610E023E045E650E060E085E6F1
:1004B00090E00E9469018FEF84BB26E040E051EE9E
:1004C00060E070E08DEA91E00E94050467E171E070
:1004D0008DEA91E01F910F91EF90DF90CF90AF9058
:1004E0000C944505AF92CF92DF92EF920F931F933A
:1004F0000E94570180917E0190917F0180389F4F2B
:1005000079F480917C0190917D018038910541F4CE
:1005100081E020917A0130917B0120383F4F09F032
:1005200080E0282F30E030938101209380018823E0
:10053000E9F18091890190E08F57910990938101B1
:100540008093800180918A012FE730E0A901481B48
:10055000510950937F0140937E018091870190E083
:100560008F57910990937D0180937C018091880140
:10057000281B310930937B0120937A0163E271E0FB
:100580008DEA91E00E94450582E0A82E95E6C92EED
:10059000D12CEE24E39405E610E023E045E650E09C
:1005A00060E085E690E00E94690151C080E094E03F
:1005B0000E943702882319F06BE371E03EC080E0AF
:1005C00091E00E943702882319F06EE371E035C094
:1005D00080E098E00E943702882319F061E471E01E
:1005E0002CC080E092E00E943702882319F064E476
:1005F00071E023C081E090E00E943702882319F067
:1006000067E471E01AC088E090E00E943702882316
:1006100019F06EE471E011C082E090E00E943702B0
:10062000882319F064E571E008C084E090E00E943E
:100630003702882361F067E571E08DEA91E01F9150
:100640000F91EF90DF90CF90AF900C9445051F91E4
:100650000F91EF90DF90CF90AF900895FC01918DB6
:10066000228D892F90E0805C9F4F821B91098F73B0
:1006700099270895FC01918D828D981731F0828D14
:10068000E80FF11D858D90E008958FEF9FEF08959D
:10069000FC01918D828D981761F0828DDF01A80F8A
:1006A000B11D5D968C91928D9F5F9F73928F90E0AC
:1006B00008958FEF9FEF08958AEC94E0892B41F025
:1006C00080E090E0892B21F00E94CA0481110DC0C6
:1006D00080E090E0892B71F080E090E0892B51F070
:1006E0000E940000811104C008950E940000F0CF14
:1006F0000C9400000895FC01848DDF01A80FB11D4A
:10070000A35ABF4F2C91848D90E001968F73992747
:10071000848FA689B7892C93A089B1898C91806434
:100720008C93938D848D981306C00288F389E02DF5
:1007300080818F7D80830895CF93DF93EC01888D36
:100740008823C9F0EA89FB89808185FD05C0A889D5
:10075000B9898C9186FD0FC00FB607FCF5CF80815B
:1007600085FFF2CFA889B9898C9185FFEDCFCE01A5
:100770000E947B03E7CFDF91CF910895EF92FF9224
:100780000F931F93CF93DF93EC0181E0888F9B8DB4
:100790008C8D981305C0E889F989808185FD24C076
:1007A000F62E0B8D10E00F5F1F4F0F731127E02EF9
:1007B0008C8DE8120CC00FB607FCFACFE889F989D6
:1007C000808185FFF5CFCE010E947B03F1CF8B8D19
:1007D000FE01E80FF11DE35AFF4FF0820B8FEA890B
:1007E000FB898081806207C0EE89FF896083E88988
:1007F000F98980818064808381E090E0DF91CF91EE
:100800001F910F91FF90EF900895CF92DF92EF929A
:10081000FF921F93CF93DF93EC016A017B01122FAC
:10082000E889F98982E080834115514E610571059F
:10083000B1F060E079E08DE390E0A70196010E94BD
:10084000E105DA01C9010197A109B109B695A7959A
:1008500097958795AC01411580E15807A8F0E88984
:10086000F989108260E874E88EE190E0A7019601B2
:100870000E94E105BA01A9014150510961097109BC
:100880007695679557954795EC85FD855083EE8560
:10089000FF854083188EEC89FD891083EA89FB89E6
:1008A000808180618083EA89FB8980818860808380
:1008B000EA89FB89808180688083EA89FB8980815D
:1008C0008F7D8083DF91CF911F91FF90EF90DF901C
:1008D000CF9008951F920F920FB60F9211240BB66E
:1008E0000F922F938F939F93EF93FF93E091BD010E
:1008F000F091BE018081E091C301F091C40182FDBD
:1009000012C090818091C6018F5F8F732091C701C3
:10091000821751F0E091C601F0E0E355FE4F958F4C
:100920008093C60101C08081FF91EF919F918F91CB
:100930002F910F900BBE0F900FBE0F901F90189528
:100940001F920F920FB60F9211240BB60F922F9396
:100950003F934F935F936F937F938F939F93AF9347
:10096000BF93EF93FF938DEA91E00E947B03FF9189
:10097000EF91BF91AF919F918F917F916F915F9117
:100980004F913F912F910F900BBE0F900FBE0F9084
:100990001F9018958DEA91E00E942E0321E0892B8B
:1009A00009F420E0822F0895EDEAF1E0138212822B
:1009B00088EE93E0A0E0B0E084839583A683B783BC
:1009C0008EE591E09183808380E990E0958784872C
:1009D00089E290E0978786878BE290E0918B808B0D
:1009E0008AE290E0938B828B85E990E0958B848BF3
:1009F0008CE290E0978B868B118E128E138E148E64
:100A00000895CF92DF92EF92FF920F931F93CF93AF
:100A1000DF936C017A018B01C0E0D0E0CE15DF05D9
:100A200089F0D8016D918D01D601ED91FC91019075
:100A3000F081E02DC6010995892B11F47E0102C0D9
:100A40002196ECCFC701DF91CF911F910F91FF90BD
:100A5000EF90DF90CF9008956115710579F0FB015B
:100A600001900020E9F73197AF01461B570BDC01DD
:100A7000ED91FC910280F381E02D099480E090E0FB
:100A800008956AE671E00C942C050F931F93CF93A1
:100A9000DF93EC010E942C058C01CE010E944105E0
:100AA000800F911FDF91CF911F910F9108950895AD
:100AB0000E94B1050E9457050E944402CCE5D3E094
:100AC0000E9472022097E1F30E945C03F9CF1F920B
:100AD0000F920FB60F9211242F933F938F939F93F2
:100AE000AF93BF9380914B0290914C02A0914D0225
:100AF000B0914E0230914A0223E0230F2D3720F4AB
:100B00000196A11DB11D05C026E8230F0296A11D67
:100B1000B11D20934A0280934B0290934C02A09304
:100B20004D02B0934E0280914F0290915002A091DD
:100B30005102B09152020196A11DB11D80934F0246
:100B400090935002A0935102B0935202BF91AF9183
:100B50009F918F913F912F910F900FBE0F901F90FB
:100B60001895789483B7806483BF83B7886083BF08
:100B700083B7846083BF87B7816087BF1EBC8EB593
:100B800082608EBD8EB581608EBD8FB581608FBD58
:100B900085B5846085BD85B5806485BDEAE8F0E0F3
:100BA000808182608083808181608083EBE8F0E0D7
:100BB000808181608083329A319A309A379A1AB84C
:100BC0000895A1E21A2EAA1BBB1BFD010DC0AA1F8E
:100BD000BB1FEE1FFF1FA217B307E407F50720F0A6
:100BE000A21BB30BE40BF50B661F771F881F991F21
:100BF0001A9469F760957095809590959B01AC016A
:100C0000BD01CF010895EE0FFF1F0024001C0BBE95
:0C0C10000790F691E02D0994F894FFCFB6
:100C1C0001430001000144000103000000000143F6
:100C2C0000005A5A5A5A5A536574757020446F6EA4
:100C3C00652100436F6E74726F6C6C657220446931
:100C4C0073636F6E6E6563746564004C31004C3277
:100C5C000052310052320073656C6563740073741A
:100C6C00617274004C330072330000000000BE034C
:100C7C0001052E0348033A039C030D0A006E616EB6
:0A0C8C0000696E66006F76660000D6
:00000001FF
